:0200000480007A
:10000000370100801301410BE700010013000000DD
:1000100000000000000000000000000000000000E0
:10002000232E11FE232C51FE232A61FE232871FE6C
:100030002326A1FE2324B1FE2322C1FE2320D1FECC
:10004000232EE1FC232CF1FC232A01FD232811FDA2
:100050002326C1FD2324D1FD2322E1FD2320F1FD30
:10006000130101FC97000000E780C0398320C10321
:100070008322810303234103832301030325C10258
:100080008325810203264102832601020327C10141
:10009000832781010328410183280101032EC10028
:1000A000832E8100032F4100832F010013010104DF
:1000B00073002030971100009381C1881701000060
:1000C00013014108170500001305C5079705000037
:1000D000938505106308B50023200500130545002E
:1000E0006FF05FFF17050000130505361301C1FF10
:1000F0009705000093854535630EB50083260500FE
:10010000130545002320A100E78006000325010018
:100110006FF01FFE1301410037150000130505881D
:1001200073104530372500001305858073100530A6
:0C01300097000000E78080106F000000C6
:1001CC00130101FF232611002324810013040101D4
:1001DC0013050000232AA4FE6F004000832544FF72
:1001EC0013059000634CB5026F004000032544FFDB
:1001FC0093152500370500801305451AB305B50086
:10020C001305000023A0A5006F004000032544FF48
:10021C0013051500232AA4FE6FF05FFC8320C10098
:10022C00032481001301010167800000130101FD0B
:10023C002326110223248102130401031305000059
:10024C00232AA4FEB70500809307100023A0F51401
:10025C0013860514232EC4FC130840002322060128
:10026C009305F0FF2324B600232AA60013072000D1
:10027C00232CE60093063000232ED6002320060301
:10028C002322B6022324F6022326D60223280603B1
:10029C00232AB602232EF6022320E6042322060587
:1002AC002324B6042328A604232AF604232CE604CC
:1002BC00232ED6042320B6062328A4FE2326A4FE30
:1002CC006F0040008325C4FE13054000634AB5103F
:1002DC006F0040000325C4FE930540019700000009
:1002EC00E78080139305050037050080130505147E
:1002FC003305B500130000002324A4FE13050000F1
:10030C002322A4FE6F004000032544FE832584FEB7
:10031C00635EB50A6F0040000325C4FE93054001DF
:10032C002328B4FC97000000E780000F930505001C
:10033C003705008013050514232CA4FC3305B500E8
:10034C00832544FE939525003305B5000325050050
:10035C002320A4FE97000000E780C0E6832504FD5F
:10036C000325C4FE97000000E780000B832504FDE5
:10037C0013060500032584FD3305C500232AA4FCC0
:10038C00032504FE97000000E7800009832544FD47
:10039C0013060500032584FD3306C50037050080D0
:1003AC001305451A1300000013000000032504FF79
:1003BC003305B5002328A4FE6F004000032544FE3E
:1003CC00130515002322A4FE6FF01FF46F004000EC
:1003DC000325C4FE130515002326A4FE6FF09FEE23
:1003EC00032504FF8320C1020324810213010103AE
:1003FC0067800000130101FF2326110023248100D4
:10040C00130401018320C1000324810013010101A5
:10041C0067800000130605001305000093F6150015
:10042C00638406003305C50093D51500131616001A
:08043C00E39605FE6780000055
:040000058000000077
:00000001FF
