:0200000480007A
:10000000370100801301410BE700010013000000DD
:1000100000000000000000000000000000000000E0
:10002000232E11FE232C51FE232A61FE232871FE6C
:100030002326A1FE2324B1FE2322C1FE2320D1FECC
:10004000232EE1FC232CF1FC232A01FD232811FDA2
:100050002326C1FD2324D1FD2322E1FD2320F1FD30
:10006000130101FC97000000E78040188320C103C2
:100070008322810303234103832301030325C10258
:100080008325810203264102832601020327C10141
:10009000832781010328410183280101032EC10028
:1000A000832E8100032F4100832F010013010104DF
:1000B00073002030971100009381C18A170100005E
:1000C00013014108170500001305C5099705000035
:1000D0009385050C6308B500232005001305450032
:1000E0006FF05FFF17050000130545121301C1FFF4
:1000F0009705000093858511630EB50083260500E2
:10010000130545002320A100E78006000325010018
:100110006FF01FFE1301410037150000130505881D
:1001200073104530372500001305858073100530A6
:0C01300097000000E780C0056F00000091
:1001400001000000020000000300000002000000A7
:100150000300000004000000050000000000000093
:10018C00130101FF23261100232481001304010114
:10019C003705008093050514130630001305000085
:1001AC000BF5C508B70500809385C5149306400070
:1001BC00130610000BF6D508B7050080938645167C
:1001CC00930520008BF5A6088B75A6028320C10031
:1001DC00032481001301010167800000130101FF5A
:1001EC002326110023248100130401018320C10064
:0C01FC0003248100130101016780000052
:040000058000000077
:00000001FF
